:0A0000000C9466000C9400000C94B0
:10000A0000000C9400000C9400000C9400000C9466
:10001A0000000C9400000C9400000C9400000C9456
:10002A0000000C9400000C9400000C9493000C94B3
:10003A0000000C9400000C9400000C9400000C9436
:10004A0000000C9400000C9400001027E8036400E0
:10005A000A00010000100001100001000000000069
:10006A00000041542B436D67663D310D0A0041542F
:10007A002B434E4D493D322C322C302C302C300D36
:10008A000A0041542B43534D503D31372C313637FA
:10009A002C302C300D0A0041542B434D47533D0060
:1000AA0080C00100020066000400040068000C0021
:1000BA0060026C0014006C02780002004B04AA0073
:1000CA000000F894EE27ECBBF1E0FBBFEBBFE5BF05
:1000DA008DE0A2E0BB27ED938A95E9F780E098E0EE
:1000EA00A0E6ED930197E9F7ECEAF0E085919591A6
:1000FA00009761F0A591B59105901590BF01F001A7
:10010A0005900D920197E1F7FB01F0CFEFE5EDBF06
:10011A00E8E0EEBFC0E6D2E00C94AF00AA93BA932F
:10012A00EA93FA93EFB7EA93A091E402B091E50259
:10013A00A058BD4FECB1EC93A4EEB2E0ED91FD9165
:10014A003196FE93EE93E991EFBFF991E991B99156
:10015A00A9911895E0E0EABBEBBBE7BBE8BBE4BBBF
:10016A00E5BBE1BBE2BBE3BFE2BFECBFEFBDEEBD67
:10017A00EDBDECBDE7BDE6BDEBBDEABDE9BDE8BD41
:10018A00E2BDE5BDE4BDE3BDE9BFE5BFE4BFEBB950
:10019A00E8E9EAB9E6E8E0BDE0E0E0BDE3E3E9B9B1
:1001AA00E0E8E8B9E0E0E0BFE6B9EDB9E6BFA8E00B
:1001BA000E946B0111D07894E0E0E093E402E093AE
:1001CA00E50217D0AAE4B3E00E946101A0EDB7E00E
:1001DA000E94C301F1CFFFCFA0E6B2E00E949F01C7
:1001EA00ACE6B2E00E949F01A4EFB1E00E94C30115
:1001FA00089588249924EDE0F0E08E169F0664F4B1
:10020A00D401A65BBC4FF401ED54FD4FE081EC93A1
:10021A00F40131964F01EFCF0895AA93E5B3EF7039
:10022A00AE2FE881E07FEA2BE5BB8DE08A95F1F7F6
:10023A00AA9A8DE08A95F1F7AA988DE08A95F1F746
:10024A000C949D01AA93A881E8DFE881E295E883EE
:10025A00A881E3DF85E88A95F1F76AC0AA93E88165
:10026A00F0E0E55BFB4FE081A981AE0FEBDF69802F
:10027A00D88022960895A2E00E94AD01ACE0E2DFA8
:10028A00A1E00E94AD01E0E0DE2E6E2E0895AA9351
:10029A00A881AA3011F06C1448F0E0E0EA93D394F4
:1002AA00AD2DDCDFA881AA3009F442C06394A89A74
:1002BA00A881C8DFA8983CC0BA93AA931A930E944F
:1002CA00B30119F0A12FE3DFFACF3FC0AA93E4B339
:1002DA00E06FE4BBA29AA09AA19AAA98A898A998B2
:1002EA00C880E881E058E0934D04E881E054E09347
:1002FA004E04A4E1B0E00E94C3010E94BB010E9427
:10030A00BB010E94BB01A0E288DF88EC90E0019764
:10031A00F1F7A8E297DFA4E095DFA5E893DFA6E06E
:10032A0091DFA9DF05C0AA935D9BFECFE881ECB9F6
:10033A0021960895BA93AA931A930E94B30119F0C9
:10034A00A12FF1DFFACFAAE0EEDF188123960895F4
:10035A000E942701A3E0B0E00C94C301A981BA81ED
:10036A00ED91A983BA831E2FE0300895A0E30E947D
:10037A00120188EC90E00197F1F70895109639F090
:10038A00A89580ED97E00197F1F71197C9F70895BD
:00000001FF
